{
  "contractName": "PKI",
  "abi": [
    {
      "inputs": [],
      "stateMutability": "nonpayable",
      "type": "constructor"
    },
    {
      "inputs": [
        {
          "internalType": "uint256",
          "name": "",
          "type": "uint256"
        }
      ],
      "name": "domainArray",
      "outputs": [
        {
          "internalType": "string",
          "name": "",
          "type": "string"
        }
      ],
      "stateMutability": "view",
      "type": "function",
      "constant": true
    },
    {
      "inputs": [
        {
          "internalType": "string",
          "name": "",
          "type": "string"
        }
      ],
      "name": "domain_name_map",
      "outputs": [
        {
          "internalType": "string",
          "name": "domainName",
          "type": "string"
        },
        {
          "internalType": "string",
          "name": "organization",
          "type": "string"
        },
        {
          "internalType": "string",
          "name": "country",
          "type": "string"
        },
        {
          "internalType": "string",
          "name": "state",
          "type": "string"
        },
        {
          "internalType": "string",
          "name": "emailAddr",
          "type": "string"
        },
        {
          "internalType": "string",
          "name": "publicKey",
          "type": "string"
        },
        {
          "internalType": "uint256",
          "name": "daysValid",
          "type": "uint256"
        },
        {
          "internalType": "uint256",
          "name": "dateCreated",
          "type": "uint256"
        },
        {
          "internalType": "uint256",
          "name": "revokedByCount",
          "type": "uint256"
        },
        {
          "internalType": "bool",
          "name": "valid",
          "type": "bool"
        },
        {
          "internalType": "address",
          "name": "paymentAddr",
          "type": "address"
        }
      ],
      "stateMutability": "view",
      "type": "function",
      "constant": true
    },
    {
      "inputs": [
        {
          "internalType": "uint256",
          "name": "",
          "type": "uint256"
        }
      ],
      "name": "owners",
      "outputs": [
        {
          "internalType": "address",
          "name": "",
          "type": "address"
        }
      ],
      "stateMutability": "view",
      "type": "function",
      "constant": true
    },
    {
      "inputs": [
        {
          "internalType": "uint256",
          "name": "",
          "type": "uint256"
        }
      ],
      "name": "petitions",
      "outputs": [
        {
          "internalType": "address",
          "name": "petitioner",
          "type": "address"
        },
        {
          "internalType": "uint8",
          "name": "timeLapsed",
          "type": "uint8"
        },
        {
          "internalType": "uint8",
          "name": "votesReceived",
          "type": "uint8"
        },
        {
          "internalType": "bool",
          "name": "added",
          "type": "bool"
        }
      ],
      "stateMutability": "view",
      "type": "function",
      "constant": true
    },
    {
      "inputs": [
        {
          "internalType": "address",
          "name": "_petitioner",
          "type": "address"
        }
      ],
      "name": "vote",
      "outputs": [],
      "stateMutability": "nonpayable",
      "type": "function"
    },
    {
      "inputs": [],
      "name": "submitCAPetition",
      "outputs": [],
      "stateMutability": "nonpayable",
      "type": "function"
    },
    {
      "inputs": [],
      "name": "viewPetitions",
      "outputs": [
        {
          "components": [
            {
              "internalType": "address",
              "name": "petitioner",
              "type": "address"
            },
            {
              "internalType": "uint8",
              "name": "timeLapsed",
              "type": "uint8"
            },
            {
              "internalType": "uint8",
              "name": "votesReceived",
              "type": "uint8"
            },
            {
              "internalType": "address[]",
              "name": "voters",
              "type": "address[]"
            },
            {
              "internalType": "bool",
              "name": "added",
              "type": "bool"
            }
          ],
          "internalType": "struct PKI.petition[]",
          "name": "",
          "type": "tuple[]"
        }
      ],
      "stateMutability": "view",
      "type": "function",
      "constant": true
    },
    {
      "inputs": [
        {
          "internalType": "address",
          "name": "petitioner",
          "type": "address"
        }
      ],
      "name": "removePetition",
      "outputs": [],
      "stateMutability": "nonpayable",
      "type": "function"
    },
    {
      "inputs": [
        {
          "internalType": "address",
          "name": "_voter",
          "type": "address"
        },
        {
          "internalType": "address[]",
          "name": "_voters",
          "type": "address[]"
        }
      ],
      "name": "checkIfVoted",
      "outputs": [
        {
          "internalType": "bool",
          "name": "",
          "type": "bool"
        }
      ],
      "stateMutability": "view",
      "type": "function",
      "constant": true
    },
    {
      "inputs": [
        {
          "internalType": "address",
          "name": "trustedca",
          "type": "address"
        }
      ],
      "name": "checkIfTrustedCA",
      "outputs": [
        {
          "internalType": "bool",
          "name": "trust",
          "type": "bool"
        }
      ],
      "stateMutability": "view",
      "type": "function",
      "constant": true
    },
    {
      "inputs": [
        {
          "internalType": "string",
          "name": "domain",
          "type": "string"
        }
      ],
      "name": "checkIfDomainUsed",
      "outputs": [
        {
          "internalType": "bool",
          "name": "isUsed",
          "type": "bool"
        }
      ],
      "stateMutability": "view",
      "type": "function",
      "constant": true
    },
    {
      "inputs": [],
      "name": "getDomains",
      "outputs": [
        {
          "internalType": "string[]",
          "name": "",
          "type": "string[]"
        }
      ],
      "stateMutability": "view",
      "type": "function",
      "constant": true
    },
    {
      "inputs": [
        {
          "internalType": "string",
          "name": "domainName",
          "type": "string"
        },
        {
          "internalType": "string",
          "name": "organization",
          "type": "string"
        },
        {
          "internalType": "string",
          "name": "country",
          "type": "string"
        },
        {
          "internalType": "string",
          "name": "state",
          "type": "string"
        },
        {
          "internalType": "string",
          "name": "emailAddr",
          "type": "string"
        },
        {
          "internalType": "string",
          "name": "publicKey",
          "type": "string"
        },
        {
          "internalType": "uint256",
          "name": "daysValid",
          "type": "uint256"
        }
      ],
      "name": "registerDomain",
      "outputs": [],
      "stateMutability": "nonpayable",
      "type": "function"
    },
    {
      "inputs": [
        {
          "internalType": "string",
          "name": "domainName",
          "type": "string"
        }
      ],
      "name": "getDomainData",
      "outputs": [
        {
          "components": [
            {
              "internalType": "string",
              "name": "domainName",
              "type": "string"
            },
            {
              "internalType": "string",
              "name": "organization",
              "type": "string"
            },
            {
              "internalType": "string",
              "name": "country",
              "type": "string"
            },
            {
              "internalType": "string",
              "name": "state",
              "type": "string"
            },
            {
              "internalType": "string",
              "name": "emailAddr",
              "type": "string"
            },
            {
              "internalType": "string",
              "name": "publicKey",
              "type": "string"
            },
            {
              "internalType": "uint256",
              "name": "daysValid",
              "type": "uint256"
            },
            {
              "internalType": "uint256",
              "name": "dateCreated",
              "type": "uint256"
            },
            {
              "internalType": "uint256",
              "name": "revokedByCount",
              "type": "uint256"
            },
            {
              "internalType": "bool",
              "name": "valid",
              "type": "bool"
            },
            {
              "internalType": "address",
              "name": "paymentAddr",
              "type": "address"
            },
            {
              "internalType": "bool[]",
              "name": "isRevokedBy",
              "type": "bool[]"
            }
          ],
          "internalType": "struct PKI.domain_data",
          "name": "",
          "type": "tuple"
        }
      ],
      "stateMutability": "view",
      "type": "function",
      "constant": true
    },
    {
      "inputs": [
        {
          "internalType": "string",
          "name": "domainName",
          "type": "string"
        }
      ],
      "name": "getOrganization",
      "outputs": [
        {
          "internalType": "string",
          "name": "org",
          "type": "string"
        }
      ],
      "stateMutability": "view",
      "type": "function",
      "constant": true
    },
    {
      "inputs": [
        {
          "internalType": "string",
          "name": "domainName",
          "type": "string"
        }
      ],
      "name": "getCountry",
      "outputs": [
        {
          "internalType": "string",
          "name": "con",
          "type": "string"
        }
      ],
      "stateMutability": "view",
      "type": "function",
      "constant": true
    },
    {
      "inputs": [
        {
          "internalType": "string",
          "name": "domainName",
          "type": "string"
        }
      ],
      "name": "getEmail",
      "outputs": [
        {
          "internalType": "string",
          "name": "email",
          "type": "string"
        }
      ],
      "stateMutability": "view",
      "type": "function",
      "constant": true
    },
    {
      "inputs": [
        {
          "internalType": "string",
          "name": "domainName",
          "type": "string"
        }
      ],
      "name": "getKey",
      "outputs": [
        {
          "internalType": "string",
          "name": "key",
          "type": "string"
        }
      ],
      "stateMutability": "view",
      "type": "function",
      "constant": true
    },
    {
      "inputs": [
        {
          "internalType": "string",
          "name": "domainName",
          "type": "string"
        }
      ],
      "name": "getAddress",
      "outputs": [
        {
          "internalType": "address",
          "name": "",
          "type": "address"
        }
      ],
      "stateMutability": "view",
      "type": "function",
      "constant": true
    },
    {
      "inputs": [
        {
          "internalType": "string",
          "name": "domainName",
          "type": "string"
        }
      ],
      "name": "getCreationDate",
      "outputs": [
        {
          "internalType": "uint256",
          "name": "",
          "type": "uint256"
        }
      ],
      "stateMutability": "view",
      "type": "function",
      "constant": true
    },
    {
      "inputs": [
        {
          "internalType": "string",
          "name": "domainName",
          "type": "string"
        }
      ],
      "name": "getCARevokeStatus",
      "outputs": [
        {
          "internalType": "address[]",
          "name": "",
          "type": "address[]"
        },
        {
          "internalType": "bool[]",
          "name": "",
          "type": "bool[]"
        }
      ],
      "stateMutability": "view",
      "type": "function",
      "constant": true
    },
    {
      "inputs": [
        {
          "internalType": "string",
          "name": "domainName",
          "type": "string"
        },
        {
          "internalType": "string",
          "name": "publicKeyNew",
          "type": "string"
        }
      ],
      "name": "updatePublicKey",
      "outputs": [],
      "stateMutability": "nonpayable",
      "type": "function"
    },
    {
      "inputs": [
        {
          "internalType": "string",
          "name": "domainName",
          "type": "string"
        },
        {
          "internalType": "uint256",
          "name": "newDay",
          "type": "uint256"
        }
      ],
      "name": "updateDaysOfContract",
      "outputs": [],
      "stateMutability": "nonpayable",
      "type": "function"
    },
    {
      "inputs": [
        {
          "internalType": "string",
          "name": "domainName",
          "type": "string"
        }
      ],
      "name": "removeDomain",
      "outputs": [],
      "stateMutability": "nonpayable",
      "type": "function"
    },
    {
      "inputs": [
        {
          "internalType": "string",
          "name": "domainName",
          "type": "string"
        }
      ],
      "name": "revokeDomain",
      "outputs": [],
      "stateMutability": "nonpayable",
      "type": "function"
    },
    {
      "inputs": [
        {
          "internalType": "string",
          "name": "domainName",
          "type": "string"
        }
      ],
      "name": "verifyDomain",
      "outputs": [
        {
          "internalType": "bool",
          "name": "",
          "type": "bool"
        }
      ],
      "stateMutability": "view",
      "type": "function",
      "constant": true
    },
    {
      "inputs": [],
      "name": "getCAs",
      "outputs": [
        {
          "internalType": "address[]",
          "name": "",
          "type": "address[]"
        }
      ],
      "stateMutability": "view",
      "type": "function",
      "constant": true
    }
  ],
  "bytecode": "0x608060405234801561001057600080fd5b506000735dd5d1def7f67e5f0b977db341d7774f2ccc89b59080600181540180825580915050600190039060005260206000200160009091909190916101000a81548173ffffffffffffffffffffffffffffffffffffffff021916908373ffffffffffffffffffffffffffffffffffffffff1602179055506000732621922ffb7bf8b052ada0cdbb0e2bb15e6692dd9080600181540180825580915050600190039060005260206000200160009091909190916101000a81548173ffffffffffffffffffffffffffffffffffffffff021916908373ffffffffffffffffffffffffffffffffffffffff1602179055506000738fb7452f0a4cddc463b3241a47eb0db5feee01a39080600181540180825580915050600190039060005260206000200160009091909190916101000a81548173ffffffffffffffffffffffffffffffffffffffff021916908373ffffffffffffffffffffffffffffffffffffffff16021790555060007316df74a6dbe94aa3fc3834e5a6589ec473e34f149080600181540180825580915050600190039060005260206000200160009091909190916101000a81548173ffffffffffffffffffffffffffffffffffffffff021916908373ffffffffffffffffffffffffffffffffffffffff160217905550600073263202fc6a8e70f58079859349f34dc1f82184f19080600181540180825580915050600190039060005260206000200160009091909190916101000a81548173ffffffffffffffffffffffffffffffffffffffff021916908373ffffffffffffffffffffffffffffffffffffffff1602179055506000734a896995f0c53a52d58381c22d137c25a7879aa89080600181540180825580915050600190039060005260206000200160009091909190916101000a81548173ffffffffffffffffffffffffffffffffffffffff021916908373ffffffffffffffffffffffffffffffffffffffff160217905550600073251018f4c3dcf280205d5d24770806ef14a90b429080600181540180825580915050600190039060005260206000200160009091909190916101000a81548173ffffffffffffffffffffffffffffffffffffffff021916908373ffffffffffffffffffffffffffffffffffffffff16021790555060007324524e2fb653e06e001a9498c1c0b616e4d12f219080600181540180825580915050600190039060005260206000200160009091909190916101000a81548173ffffffffffffffffffffffffffffffffffffffff021916908373ffffffffffffffffffffffffffffffffffffffff1602179055506148ad806103d86000396000f3fe608060405234801561001057600080fd5b50600436106101a95760003560e01c8063848924cb116100f9578063bf40fac111610097578063cfce4aeb11610071578063cfce4aeb14610523578063d37aec9214610553578063f51e7ba214610583578063f77e8bd7146105b4576101a9565b8063bf40fac1146104a7578063c2e4cee3146104d7578063c34a43ff146104f3576101a9565b8063b5ca308b116100d3578063b5ca308b14610403578063b756459f14610421578063b7c89fc01461045b578063bf259ca214610477576101a9565b8063848924cb146103975780639101cc65146103c7578063973378be146103e5576101a9565b8063547045db1161016657806362c2d59b1161014057806362c2d59b146102eb5780636dd7d8ea1461031b578063718c7888146103375780637afdfb4f14610367576101a9565b8063547045db1461028357806358925bd71461029f5780635d1c7985146102cf576101a9565b8063025e7c27146101ae57806322778929146101de5780632b9159c2146101fa5780633316653514610204578063375aa7e2146102205780633ad50ded14610250575b600080fd5b6101c860048036038101906101c3919061325d565b6105e4565b6040516101d591906132cb565b60405180910390f35b6101f860048036038101906101f3919061342c565b610623565b005b6102026107d8565b005b61021e60048036038101906102199190613475565b610a6d565b005b61023a6004803603810190610235919061342c565b610e22565b6040516102479190613647565b60405180910390f35b61026a6004803603810190610265919061325d565b610ed5565b60405161027a94939291906136a0565b60405180910390f35b61029d6004803603810190610298919061342c565b610f5c565b005b6102b960048036038101906102b4919061342c565b61119c565b6040516102c691906136f4565b60405180910390f35b6102e960048036038101906102e4919061370f565b6111c7565b005b610305600480360381019061030091906137b3565b611249565b60405161031291906137e0565b60405180910390f35b610335600480360381019061033091906137b3565b6112f4565b005b610351600480360381019061034c919061342c565b611987565b60405161035e91906137e0565b60405180910390f35b610381600480360381019061037c919061342c565b611a01565b60405161038e9190613a4f565b60405180910390f35b6103b160048036038101906103ac919061342c565b611eb2565b6040516103be9190613647565b60405180910390f35b6103cf611f65565b6040516103dc9190613b33565b60405180910390f35b6103ed61203e565b6040516103fa9190613d4b565b60405180910390f35b61040b6121d6565b6040516104189190613ddc565b60405180910390f35b61043b6004803603810190610436919061342c565b612264565b6040516104529b9a99989796959493929190613dfe565b60405180910390f35b610475600480360381019061047091906137b3565b612631565b005b610491600480360381019061048c919061325d565b612978565b60405161049e9190613647565b60405180910390f35b6104c160048036038101906104bc919061342c565b612a24565b6040516104ce91906132cb565b60405180910390f35b6104f160048036038101906104ec9190613ed3565b612a6f565b005b61050d60048036038101906105089190613ff7565b612ae1565b60405161051a91906137e0565b60405180910390f35b61053d6004803603810190610538919061342c565b612b65565b60405161054a91906137e0565b60405180910390f35b61056d6004803603810190610568919061342c565b612b9d565b60405161057a9190613647565b60405180910390f35b61059d6004803603810190610598919061342c565b612c50565b6040516105ab9291906140c2565b60405180910390f35b6105ce60048036038101906105c9919061342c565b612d7e565b6040516105db9190613647565b60405180910390f35b600081815481106105f457600080fd5b906000526020600020016000915054906101000a900473ffffffffffffffffffffffffffffffffffffffff1681565b61062c33611249565b61066b576040517f08c379a000000000000000000000000000000000000000000000000000000000815260040161066290614145565b60405180910390fd5b60005b6003805490508110156107d4578160405160200161068c91906141a1565b60405160208183030381529060405280519060200120600382815481106106b6576106b56141b8565b5b906000526020600020016040516020016106d091906142dc565b6040516020818303038152906040528051906020012014156107c157600360016003805490506107009190614322565b81548110610711576107106141b8565b5b906000526020600020016003828154811061072f5761072e6141b8565b5b9060005260206000200190805461074590614216565b610750929190612ee0565b50600360016003805490506107659190614322565b81548110610776576107756141b8565b5b90600052602060002001600061078c9190612f6d565b600380548061079e5761079d614356565b5b6001900381819060005260206000200160006107ba9190612f6d565b90556107d4565b80806107cc90614385565b91505061066e565b5050565b60005b6001805490508110156108af573373ffffffffffffffffffffffffffffffffffffffff1660018281548110610813576108126141b8565b5b906000526020600020906003020160000160009054906101000a900473ffffffffffffffffffffffffffffffffffffffff1673ffffffffffffffffffffffffffffffffffffffff16141561089c576040517f08c379a000000000000000000000000000000000000000000000000000000000815260040161089390614440565b60405180910390fd5b80806108a790614385565b9150506107db565b50600015156108bd33611249565b1515146108ff576040517f08c379a00000000000000000000000000000000000000000000000000000000081526004016108f6906144ac565b60405180910390fd5b610907612fad565b33816000019073ffffffffffffffffffffffffffffffffffffffff16908173ffffffffffffffffffffffffffffffffffffffff16815250506000816020019060ff16908160ff16815250506000816040019060ff16908160ff16815250506000816080019015159081151581525050600181908060018154018082558091505060019003906000526020600020906003020160009091909190915060008201518160000160006101000a81548173ffffffffffffffffffffffffffffffffffffffff021916908373ffffffffffffffffffffffffffffffffffffffff16021790555060208201518160000160146101000a81548160ff021916908360ff16021790555060408201518160000160156101000a81548160ff021916908360ff1602179055506060820151816001019080519060200190610a47929190612ffa565b5060808201518160020160006101000a81548160ff021916908315150217905550505050565b610a7633611249565b610ab5576040517f08c379a0000000000000000000000000000000000000000000000000000000008152600401610aac90614145565b60405180910390fd5b60001515610ac288611987565b151514610b04576040517f08c379a0000000000000000000000000000000000000000000000000000000008152600401610afb90614518565b60405180910390fd5b600387908060018154018082558091505060019003906000526020600020016000909190919091509080519060200190610b3f929190613084565b5086600288604051610b5191906141a1565b90815260200160405180910390206000019080519060200190610b75929190613084565b5085600288604051610b8791906141a1565b90815260200160405180910390206001019080519060200190610bab929190613084565b5084600288604051610bbd91906141a1565b90815260200160405180910390206002019080519060200190610be1929190613084565b5083600288604051610bf391906141a1565b90815260200160405180910390206003019080519060200190610c17929190613084565b5082600288604051610c2991906141a1565b90815260200160405180910390206004019080519060200190610c4d929190613084565b5081600288604051610c5f91906141a1565b90815260200160405180910390206005019080519060200190610c83929190613084565b5080600288604051610c9591906141a1565b90815260200160405180910390206006018190555042600288604051610cbb91906141a1565b9081526020016040518091039020600701819055506000600288604051610ce291906141a1565b90815260200160405180910390206008018190555033600288604051610d0891906141a1565b908152602001604051809103902060090160016101000a81548173ffffffffffffffffffffffffffffffffffffffff021916908373ffffffffffffffffffffffffffffffffffffffff1602179055506001600288604051610d6991906141a1565b908152602001604051809103902060090160006101000a81548160ff02191690831515021790555060005b600080549050811015610e1857600288604051610db191906141a1565b9081526020016040518091039020600a01600090806001815401808255809150506001900390600052602060002090602091828204019190069091909190916101000a81548160ff0219169083151502179055508080610e1090614385565b915050610d94565b5050505050505050565b6060600282604051610e3491906141a1565b90815260200160405180910390206001018054610e5090614216565b80601f0160208091040260200160405190810160405280929190818152602001828054610e7c90614216565b8015610ec95780601f10610e9e57610100808354040283529160200191610ec9565b820191906000526020600020905b815481529060010190602001808311610eac57829003601f168201915b50505050509050919050565b60018181548110610ee557600080fd5b90600052602060002090600302016000915090508060000160009054906101000a900473ffffffffffffffffffffffffffffffffffffffff16908060000160149054906101000a900460ff16908060000160159054906101000a900460ff16908060020160009054906101000a900460ff16905084565b610f6533611249565b610fa4576040517f08c379a0000000000000000000000000000000000000000000000000000000008152600401610f9b90614145565b60405180910390fd5b610fad81612b65565b610fec576040517f08c379a0000000000000000000000000000000000000000000000000000000008152600401610fe390614584565b60405180910390fd5b6000151560028260405161100091906141a1565b9081526020016040518091039020600a0161101a33612e31565b8154811061102b5761102a6141b8565b5b90600052602060002090602091828204019190069054906101000a900460ff1615151461108d576040517f08c379a000000000000000000000000000000000000000000000000000000000815260040161108490614616565b60405180910390fd5b600160028260405161109f91906141a1565b9081526020016040518091039020600a016110b933612e31565b815481106110ca576110c96141b8565b5b90600052602060002090602091828204019190066101000a81548160ff021916908315150217905550600160028260405161110591906141a1565b908152602001604051809103902060080160008282546111259190614636565b92505081905550600360028260405161113e91906141a1565b9081526020016040518091039020600801541061119957600060028260405161116791906141a1565b908152602001604051809103902060090160006101000a81548160ff02191690831515021790555061119881610623565b5b50565b60006002826040516111ae91906141a1565b9081526020016040518091039020600701549050919050565b6111d033611249565b61120f576040517f08c379a000000000000000000000000000000000000000000000000000000000815260040161120690614145565b60405180910390fd5b8060028360405161122091906141a1565b90815260200160405180910390206005019080519060200190611244929190613084565b505050565b6000806000905060005b6000805490508110156112ea5760008181548110611274576112736141b8565b5b9060005260206000200160009054906101000a900473ffffffffffffffffffffffffffffffffffffffff1673ffffffffffffffffffffffffffffffffffffffff168473ffffffffffffffffffffffffffffffffffffffff1614156112d757600191505b80806112e290614385565b915050611253565b5080915050919050565b6112fd33611249565b61133c576040517f08c379a000000000000000000000000000000000000000000000000000000000815260040161133390614145565b60405180910390fd5b60005b6001805490508110156113b8576001808281548110611361576113606141b8565b5b906000526020600020906003020160000160148282829054906101000a900460ff1661138d919061468c565b92506101000a81548160ff021916908360ff16021790555080806113b090614385565b91505061133f565b5060005b600180549050811015611983578173ffffffffffffffffffffffffffffffffffffffff16600182815481106113f4576113f36141b8565b5b906000526020600020906003020160000160009054906101000a900473ffffffffffffffffffffffffffffffffffffffff1673ffffffffffffffffffffffffffffffffffffffff16141561169457600015156114f9336001848154811061145e5761145d6141b8565b5b90600052602060002090600302016001018054806020026020016040519081016040528092919081815260200182805480156114ef57602002820191906000526020600020905b8160009054906101000a900473ffffffffffffffffffffffffffffffffffffffff1673ffffffffffffffffffffffffffffffffffffffff16815260200190600101908083116114a5575b5050505050612ae1565b15151461153b576040517f08c379a00000000000000000000000000000000000000000000000000000000081526004016115329061470f565b60405180910390fd5b6000151560018281548110611553576115526141b8565b5b906000526020600020906003020160020160009054906101000a900460ff161515146115b4576040517f08c379a00000000000000000000000000000000000000000000000000000000081526004016115ab906147a1565b60405180910390fd5b60018082815481106115c9576115c86141b8565b5b906000526020600020906003020160000160158282829054906101000a900460ff166115f5919061468c565b92506101000a81548160ff021916908360ff16021790555060018181548110611621576116206141b8565b5b9060005260206000209060030201600101339080600181540180825580915050600190039060005260206000200160009091909190916101000a81548173ffffffffffffffffffffffffffffffffffffffff021916908373ffffffffffffffffffffffffffffffffffffffff1602179055505b6003600182815481106116aa576116a96141b8565b5b906000526020600020906003020160000160159054906101000a900460ff1660ff1610158015611710575060001515600182815481106116ed576116ec6141b8565b5b906000526020600020906003020160020160009054906101000a900460ff161515145b156118a05760006001828154811061172b5761172a6141b8565b5b906000526020600020906003020160000160009054906101000a900473ffffffffffffffffffffffffffffffffffffffff169080600181540180825580915050600190039060005260206000200160009091909190916101000a81548173ffffffffffffffffffffffffffffffffffffffff021916908373ffffffffffffffffffffffffffffffffffffffff16021790555060005b600380549050811015611861576002600382815481106117e3576117e26141b8565b5b906000526020600020016040516117fa91906142dc565b9081526020016040518091039020600a01600090806001815401808255809150506001900390600052602060002090602091828204019190069091909190916101000a81548160ff021916908315150217905550808061185990614385565b9150506117c0565b506001808281548110611877576118766141b8565b5b906000526020600020906003020160020160006101000a81548160ff0219169083151502179055505b6004600182815481106118b6576118b56141b8565b5b906000526020600020906003020160000160149054906101000a900460ff1660ff161015801561191c575060001515600182815481106118f9576118f86141b8565b5b906000526020600020906003020160020160009054906101000a900460ff161515145b156119705761196f60018281548110611938576119376141b8565b5b906000526020600020906003020160000160009054906101000a900473ffffffffffffffffffffffffffffffffffffffff16612631565b5b808061197b90614385565b9150506113bc565b5050565b6000806000905060005b6003805490508110156119f7578380519060200120600382815481106119ba576119b96141b8565b5b906000526020600020016040516119d19190614860565b604051809103902014156119e457600191505b80806119ef90614385565b915050611991565b5080915050919050565b611a0961310a565b600282604051611a1991906141a1565b908152602001604051809103902060405180610180016040529081600082018054611a4390614216565b80601f0160208091040260200160405190810160405280929190818152602001828054611a6f90614216565b8015611abc5780601f10611a9157610100808354040283529160200191611abc565b820191906000526020600020905b815481529060010190602001808311611a9f57829003601f168201915b50505050508152602001600182018054611ad590614216565b80601f0160208091040260200160405190810160405280929190818152602001828054611b0190614216565b8015611b4e5780601f10611b2357610100808354040283529160200191611b4e565b820191906000526020600020905b815481529060010190602001808311611b3157829003601f168201915b50505050508152602001600282018054611b6790614216565b80601f0160208091040260200160405190810160405280929190818152602001828054611b9390614216565b8015611be05780601f10611bb557610100808354040283529160200191611be0565b820191906000526020600020905b815481529060010190602001808311611bc357829003601f168201915b50505050508152602001600382018054611bf990614216565b80601f0160208091040260200160405190810160405280929190818152602001828054611c2590614216565b8015611c725780601f10611c4757610100808354040283529160200191611c72565b820191906000526020600020905b815481529060010190602001808311611c5557829003601f168201915b50505050508152602001600482018054611c8b90614216565b80601f0160208091040260200160405190810160405280929190818152602001828054611cb790614216565b8015611d045780601f10611cd957610100808354040283529160200191611d04565b820191906000526020600020905b815481529060010190602001808311611ce757829003601f168201915b50505050508152602001600582018054611d1d90614216565b80601f0160208091040260200160405190810160405280929190818152602001828054611d4990614216565b8015611d965780601f10611d6b57610100808354040283529160200191611d96565b820191906000526020600020905b815481529060010190602001808311611d7957829003601f168201915b505050505081526020016006820154815260200160078201548152602001600882015481526020016009820160009054906101000a900460ff161515151581526020016009820160019054906101000a900473ffffffffffffffffffffffffffffffffffffffff1673ffffffffffffffffffffffffffffffffffffffff1673ffffffffffffffffffffffffffffffffffffffff168152602001600a8201805480602002602001604051908101604052809291908181526020018280548015611ea257602002820191906000526020600020906000905b82829054906101000a900460ff16151581526020019060010190602082600001049283019260010382029150808411611e6c5790505b5050505050815250509050919050565b6060600282604051611ec491906141a1565b90815260200160405180910390206002018054611ee090614216565b80601f0160208091040260200160405190810160405280929190818152602001828054611f0c90614216565b8015611f595780601f10611f2e57610100808354040283529160200191611f59565b820191906000526020600020905b815481529060010190602001808311611f3c57829003601f168201915b50505050509050919050565b60606003805480602002602001604051908101604052809291908181526020016000905b82821015612035578382906000526020600020018054611fa890614216565b80601f0160208091040260200160405190810160405280929190818152602001828054611fd490614216565b80156120215780601f10611ff657610100808354040283529160200191612021565b820191906000526020600020905b81548152906001019060200180831161200457829003601f168201915b505050505081526020019060010190611f89565b50505050905090565b60606001805480602002602001604051908101604052809291908181526020016000905b828210156121cd57838290600052602060002090600302016040518060a00160405290816000820160009054906101000a900473ffffffffffffffffffffffffffffffffffffffff1673ffffffffffffffffffffffffffffffffffffffff1673ffffffffffffffffffffffffffffffffffffffff1681526020016000820160149054906101000a900460ff1660ff1660ff1681526020016000820160159054906101000a900460ff1660ff1660ff1681526020016001820180548060200260200160405190810160405280929190818152602001828054801561219a57602002820191906000526020600020905b8160009054906101000a900473ffffffffffffffffffffffffffffffffffffffff1673ffffffffffffffffffffffffffffffffffffffff1681526020019060010190808311612150575b505050505081526020016002820160009054906101000a900460ff16151515158152505081526020019060010190612062565b50505050905090565b6060600080548060200260200160405190810160405280929190818152602001828054801561225a57602002820191906000526020600020905b8160009054906101000a900473ffffffffffffffffffffffffffffffffffffffff1673ffffffffffffffffffffffffffffffffffffffff1681526020019060010190808311612210575b5050505050905090565b60028180516020810182018051848252602083016020850120818352809550505050505060009150905080600001805461229d90614216565b80601f01602080910402602001604051908101604052809291908181526020018280546122c990614216565b80156123165780601f106122eb57610100808354040283529160200191612316565b820191906000526020600020905b8154815290600101906020018083116122f957829003601f168201915b50505050509080600101805461232b90614216565b80601f016020809104026020016040519081016040528092919081815260200182805461235790614216565b80156123a45780601f10612379576101008083540402835291602001916123a4565b820191906000526020600020905b81548152906001019060200180831161238757829003601f168201915b5050505050908060020180546123b990614216565b80601f01602080910402602001604051908101604052809291908181526020018280546123e590614216565b80156124325780601f1061240757610100808354040283529160200191612432565b820191906000526020600020905b81548152906001019060200180831161241557829003601f168201915b50505050509080600301805461244790614216565b80601f016020809104026020016040519081016040528092919081815260200182805461247390614216565b80156124c05780601f10612495576101008083540402835291602001916124c0565b820191906000526020600020905b8154815290600101906020018083116124a357829003601f168201915b5050505050908060040180546124d590614216565b80601f016020809104026020016040519081016040528092919081815260200182805461250190614216565b801561254e5780601f106125235761010080835404028352916020019161254e565b820191906000526020600020905b81548152906001019060200180831161253157829003601f168201915b50505050509080600501805461256390614216565b80601f016020809104026020016040519081016040528092919081815260200182805461258f90614216565b80156125dc5780601f106125b1576101008083540402835291602001916125dc565b820191906000526020600020905b8154815290600101906020018083116125bf57829003601f168201915b5050505050908060060154908060070154908060080154908060090160009054906101000a900460ff16908060090160019054906101000a900473ffffffffffffffffffffffffffffffffffffffff1690508b565b60005b600180549050811015612974578173ffffffffffffffffffffffffffffffffffffffff166001828154811061266c5761266b6141b8565b5b906000526020600020906003020160000160009054906101000a900473ffffffffffffffffffffffffffffffffffffffff1673ffffffffffffffffffffffffffffffffffffffff1614156129615760018080805490506126cc9190614322565b815481106126dd576126dc6141b8565b5b9060005260206000209060030201600182815481106126ff576126fe6141b8565b5b90600052602060002090600302016000820160009054906101000a900473ffffffffffffffffffffffffffffffffffffffff168160000160006101000a81548173ffffffffffffffffffffffffffffffffffffffff021916908373ffffffffffffffffffffffffffffffffffffffff1602179055506000820160149054906101000a900460ff168160000160146101000a81548160ff021916908360ff1602179055506000820160159054906101000a900460ff168160000160156101000a81548160ff021916908360ff16021790555060018201816001019080546127e6929190613183565b506002820160009054906101000a900460ff168160020160006101000a81548160ff02191690831515021790555090505060018080805490506128299190614322565b8154811061283a576128396141b8565b5b9060005260206000209060030201600080820160006101000a81549073ffffffffffffffffffffffffffffffffffffffff02191690556000820160146101000a81549060ff02191690556000820160156101000a81549060ff02191690556001820160006128a891906131d5565b6002820160006101000a81549060ff0219169055505060018054806128d0576128cf614356565b5b6001900381819060005260206000209060030201600080820160006101000a81549073ffffffffffffffffffffffffffffffffffffffff02191690556000820160146101000a81549060ff02191690556000820160156101000a81549060ff021916905560018201600061294491906131d5565b6002820160006101000a81549060ff021916905550509055612974565b808061296c90614385565b915050612634565b5050565b6003818154811061298857600080fd5b9060005260206000200160009150905080546129a390614216565b80601f01602080910402602001604051908101604052809291908181526020018280546129cf90614216565b8015612a1c5780601f106129f157610100808354040283529160200191612a1c565b820191906000526020600020905b8154815290600101906020018083116129ff57829003601f168201915b505050505081565b6000600282604051612a3691906141a1565b908152602001604051809103902060090160019054906101000a900473ffffffffffffffffffffffffffffffffffffffff169050919050565b612a7833611249565b612ab7576040517f08c379a0000000000000000000000000000000000000000000000000000000008152600401612aae90614145565b60405180910390fd5b80600283604051612ac891906141a1565b9081526020016040518091039020600601819055505050565b6000806000905060005b8351811015612b5a578473ffffffffffffffffffffffffffffffffffffffff16848281518110612b1e57612b1d6141b8565b5b602002602001015173ffffffffffffffffffffffffffffffffffffffff161415612b4757600191505b8080612b5290614385565b915050612aeb565b508091505092915050565b6000600282604051612b7791906141a1565b908152602001604051809103902060090160009054906101000a900460ff169050919050565b6060600282604051612baf91906141a1565b90815260200160405180910390206005018054612bcb90614216565b80601f0160208091040260200160405190810160405280929190818152602001828054612bf790614216565b8015612c445780601f10612c1957610100808354040283529160200191612c44565b820191906000526020600020905b815481529060010190602001808311612c2757829003601f168201915b50505050509050919050565b6060806000600284604051612c6591906141a1565b9081526020016040518091039020600a0181805480602002602001604051908101604052809291908181526020018280548015612cf757602002820191906000526020600020905b8160009054906101000a900473ffffffffffffffffffffffffffffffffffffffff1673ffffffffffffffffffffffffffffffffffffffff1681526020019060010190808311612cad575b5050505050915080805480602002602001604051908101604052809291908181526020018280548015612d6e57602002820191906000526020600020906000905b82829054906101000a900460ff16151581526020019060010190602082600001049283019260010382029150808411612d385790505b5050505050905091509150915091565b6060600282604051612d9091906141a1565b90815260200160405180910390206004018054612dac90614216565b80601f0160208091040260200160405190810160405280929190818152602001828054612dd890614216565b8015612e255780601f10612dfa57610100808354040283529160200191612e25565b820191906000526020600020905b815481529060010190602001808311612e0857829003601f168201915b50505050509050919050565b600080600090505b600080549050811015612ed45760008181548110612e5a57612e596141b8565b5b9060005260206000200160009054906101000a900473ffffffffffffffffffffffffffffffffffffffff1673ffffffffffffffffffffffffffffffffffffffff168373ffffffffffffffffffffffffffffffffffffffff161415612ec15780915050612edb565b8080612ecc90614385565b915050612e39565b506103e890505b919050565b828054612eec90614216565b90600052602060002090601f016020900481019282612f0e5760008555612f5c565b82601f10612f1f5780548555612f5c565b82800160010185558215612f5c57600052602060002091601f016020900482015b82811115612f5b578254825591600101919060010190612f40565b5b509050612f6991906131f6565b5090565b508054612f7990614216565b6000825580601f10612f8b5750612faa565b601f016020900490600052602060002090810190612fa991906131f6565b5b50565b6040518060a00160405280600073ffffffffffffffffffffffffffffffffffffffff168152602001600060ff168152602001600060ff168152602001606081526020016000151581525090565b828054828255906000526020600020908101928215613073579160200282015b828111156130725782518260006101000a81548173ffffffffffffffffffffffffffffffffffffffff021916908373ffffffffffffffffffffffffffffffffffffffff1602179055509160200191906001019061301a565b5b50905061308091906131f6565b5090565b82805461309090614216565b90600052602060002090601f0160209004810192826130b257600085556130f9565b82601f106130cb57805160ff19168380011785556130f9565b828001600101855582156130f9579182015b828111156130f85782518255916020019190600101906130dd565b5b50905061310691906131f6565b5090565b604051806101800160405280606081526020016060815260200160608152602001606081526020016060815260200160608152602001600081526020016000815260200160008152602001600015158152602001600073ffffffffffffffffffffffffffffffffffffffff168152602001606081525090565b8280548282559060005260206000209081019282156131c45760005260206000209182015b828111156131c35782548255916001019190600101906131a8565b5b5090506131d191906131f6565b5090565b50805460008255906000526020600020908101906131f391906131f6565b50565b5b8082111561320f5760008160009055506001016131f7565b5090565b6000604051905090565b600080fd5b600080fd5b6000819050919050565b61323a81613227565b811461324557600080fd5b50565b60008135905061325781613231565b92915050565b6000602082840312156132735761327261321d565b5b600061328184828501613248565b91505092915050565b600073ffffffffffffffffffffffffffffffffffffffff82169050919050565b60006132b58261328a565b9050919050565b6132c5816132aa565b82525050565b60006020820190506132e060008301846132bc565b92915050565b600080fd5b600080fd5b6000601f19601f8301169050919050565b7f4e487b7100000000000000000000000000000000000000000000000000000000600052604160045260246000fd5b613339826132f0565b810181811067ffffffffffffffff8211171561335857613357613301565b5b80604052505050565b600061336b613213565b90506133778282613330565b919050565b600067ffffffffffffffff82111561339757613396613301565b5b6133a0826132f0565b9050602081019050919050565b82818337600083830152505050565b60006133cf6133ca8461337c565b613361565b9050828152602081018484840111156133eb576133ea6132eb565b5b6133f68482856133ad565b509392505050565b600082601f830112613413576134126132e6565b5b81356134238482602086016133bc565b91505092915050565b6000602082840312156134425761344161321d565b5b600082013567ffffffffffffffff8111156134605761345f613222565b5b61346c848285016133fe565b91505092915050565b600080600080600080600060e0888a0312156134945761349361321d565b5b600088013567ffffffffffffffff8111156134b2576134b1613222565b5b6134be8a828b016133fe565b975050602088013567ffffffffffffffff8111156134df576134de613222565b5b6134eb8a828b016133fe565b965050604088013567ffffffffffffffff81111561350c5761350b613222565b5b6135188a828b016133fe565b955050606088013567ffffffffffffffff81111561353957613538613222565b5b6135458a828b016133fe565b945050608088013567ffffffffffffffff81111561356657613565613222565b5b6135728a828b016133fe565b93505060a088013567ffffffffffffffff81111561359357613592613222565b5b61359f8a828b016133fe565b92505060c06135b08a828b01613248565b91505092959891949750929550565b600081519050919050565b600082825260208201905092915050565b60005b838110156135f95780820151818401526020810190506135de565b83811115613608576000848401525b50505050565b6000613619826135bf565b61362381856135ca565b93506136338185602086016135db565b61363c816132f0565b840191505092915050565b60006020820190508181036000830152613661818461360e565b905092915050565b600060ff82169050919050565b61367f81613669565b82525050565b60008115159050919050565b61369a81613685565b82525050565b60006080820190506136b560008301876132bc565b6136c26020830186613676565b6136cf6040830185613676565b6136dc6060830184613691565b95945050505050565b6136ee81613227565b82525050565b600060208201905061370960008301846136e5565b92915050565b600080604083850312156137265761372561321d565b5b600083013567ffffffffffffffff81111561374457613743613222565b5b613750858286016133fe565b925050602083013567ffffffffffffffff81111561377157613770613222565b5b61377d858286016133fe565b9150509250929050565b613790816132aa565b811461379b57600080fd5b50565b6000813590506137ad81613787565b92915050565b6000602082840312156137c9576137c861321d565b5b60006137d78482850161379e565b91505092915050565b60006020820190506137f56000830184613691565b92915050565b600082825260208201905092915050565b6000613817826135bf565b61382181856137fb565b93506138318185602086016135db565b61383a816132f0565b840191505092915050565b61384e81613227565b82525050565b61385d81613685565b82525050565b61386c816132aa565b82525050565b600081519050919050565b600082825260208201905092915050565b6000819050602082019050919050565b60006138aa8383613854565b60208301905092915050565b6000602082019050919050565b60006138ce82613872565b6138d8818561387d565b93506138e38361388e565b8060005b838110156139145781516138fb888261389e565b9750613906836138b6565b9250506001810190506138e7565b5085935050505092915050565b600061018083016000830151848203600086015261393f828261380c565b91505060208301518482036020860152613959828261380c565b91505060408301518482036040860152613973828261380c565b9150506060830151848203606086015261398d828261380c565b915050608083015184820360808601526139a7828261380c565b91505060a083015184820360a08601526139c1828261380c565b91505060c08301516139d660c0860182613845565b5060e08301516139e960e0860182613845565b506101008301516139fe610100860182613845565b50610120830151613a13610120860182613854565b50610140830151613a28610140860182613863565b50610160830151848203610160860152613a4282826138c3565b9150508091505092915050565b60006020820190508181036000830152613a698184613921565b905092915050565b600081519050919050565b600082825260208201905092915050565b6000819050602082019050919050565b6000613aa9838361380c565b905092915050565b6000602082019050919050565b6000613ac982613a71565b613ad38185613a7c565b935083602082028501613ae585613a8d565b8060005b85811015613b215784840389528151613b028582613a9d565b9450613b0d83613ab1565b925060208a01995050600181019050613ae9565b50829750879550505050505092915050565b60006020820190508181036000830152613b4d8184613abe565b905092915050565b600081519050919050565b600082825260208201905092915050565b6000819050602082019050919050565b613b8a81613669565b82525050565b600081519050919050565b600082825260208201905092915050565b6000819050602082019050919050565b6000613bc88383613863565b60208301905092915050565b6000602082019050919050565b6000613bec82613b90565b613bf68185613b9b565b9350613c0183613bac565b8060005b83811015613c32578151613c198882613bbc565b9750613c2483613bd4565b925050600181019050613c05565b5085935050505092915050565b600060a083016000830151613c576000860182613863565b506020830151613c6a6020860182613b81565b506040830151613c7d6040860182613b81565b5060608301518482036060860152613c958282613be1565b9150506080830151613caa6080860182613854565b508091505092915050565b6000613cc18383613c3f565b905092915050565b6000602082019050919050565b6000613ce182613b55565b613ceb8185613b60565b935083602082028501613cfd85613b71565b8060005b85811015613d395784840389528151613d1a8582613cb5565b9450613d2583613cc9565b925060208a01995050600181019050613d01565b50829750879550505050505092915050565b60006020820190508181036000830152613d658184613cd6565b905092915050565b600082825260208201905092915050565b6000613d8982613b90565b613d938185613d6d565b9350613d9e83613bac565b8060005b83811015613dcf578151613db68882613bbc565b9750613dc183613bd4565b925050600181019050613da2565b5085935050505092915050565b60006020820190508181036000830152613df68184613d7e565b905092915050565b6000610160820190508181036000830152613e19818e61360e565b90508181036020830152613e2d818d61360e565b90508181036040830152613e41818c61360e565b90508181036060830152613e55818b61360e565b90508181036080830152613e69818a61360e565b905081810360a0830152613e7d818961360e565b9050613e8c60c08301886136e5565b613e9960e08301876136e5565b613ea76101008301866136e5565b613eb5610120830185613691565b613ec36101408301846132bc565b9c9b505050505050505050505050565b60008060408385031215613eea57613ee961321d565b5b600083013567ffffffffffffffff811115613f0857613f07613222565b5b613f14858286016133fe565b9250506020613f2585828601613248565b9150509250929050565b600067ffffffffffffffff821115613f4a57613f49613301565b5b602082029050602081019050919050565b600080fd5b6000613f73613f6e84613f2f565b613361565b90508083825260208201905060208402830185811115613f9657613f95613f5b565b5b835b81811015613fbf5780613fab888261379e565b845260208401935050602081019050613f98565b5050509392505050565b600082601f830112613fde57613fdd6132e6565b5b8135613fee848260208601613f60565b91505092915050565b6000806040838503121561400e5761400d61321d565b5b600061401c8582860161379e565b925050602083013567ffffffffffffffff81111561403d5761403c613222565b5b61404985828601613fc9565b9150509250929050565b600082825260208201905092915050565b600061406f82613872565b6140798185614053565b93506140848361388e565b8060005b838110156140b557815161409c888261389e565b97506140a7836138b6565b925050600181019050614088565b5085935050505092915050565b600060408201905081810360008301526140dc8185613d7e565b905081810360208301526140f08184614064565b90509392505050565b7f4f6e6c792054727573746564204341732061726520616c6c6f77656400000000600082015250565b600061412f601c836135ca565b915061413a826140f9565b602082019050919050565b6000602082019050818103600083015261415e81614122565b9050919050565b600081905092915050565b600061417b826135bf565b6141858185614165565b93506141958185602086016135db565b80840191505092915050565b60006141ad8284614170565b915081905092915050565b7f4e487b7100000000000000000000000000000000000000000000000000000000600052603260045260246000fd5b7f4e487b7100000000000000000000000000000000000000000000000000000000600052602260045260246000fd5b6000600282049050600182168061422e57607f821691505b60208210811415614242576142416141e7565b5b50919050565b60008190508160005260206000209050919050565b6000815461426a81614216565b6142748186614165565b9450600182166000811461428f57600181146142a0576142d3565b60ff198316865281860193506142d3565b6142a985614248565b60005b838110156142cb578154818901526001820191506020810190506142ac565b838801955050505b50505092915050565b60006142e8828461425d565b915081905092915050565b7f4e487b7100000000000000000000000000000000000000000000000000000000600052601160045260246000fd5b600061432d82613227565b915061433883613227565b92508282101561434b5761434a6142f3565b5b828203905092915050565b7f4e487b7100000000000000000000000000000000000000000000000000000000600052603160045260246000fd5b600061439082613227565b91507fffffffffffffffffffffffffffffffffffffffffffffffffffffffffffffffff8214156143c3576143c26142f3565b5b600182019050919050565b7f596f7520616c7265616479206861766520612070656e64696e6720612070657460008201527f6974696f6e000000000000000000000000000000000000000000000000000000602082015250565b600061442a6025836135ca565b9150614435826143ce565b604082019050919050565b600060208201905081810360008301526144598161441d565b9050919050565b7f596f752061726520616c72656164792061204341210000000000000000000000600082015250565b60006144966015836135ca565b91506144a182614460565b602082019050919050565b600060208201905081810360008301526144c581614489565b9050919050565b7f446f6d61696e20616c7265616479206578697374730000000000000000000000600082015250565b60006145026015836135ca565b915061450d826144cc565b602082019050919050565b60006020820190508181036000830152614531816144f5565b9050919050565b7f56657269667920446f6d61696e206e616d652076616c69640000000000000000600082015250565b600061456e6018836135ca565b915061457982614538565b602082019050919050565b6000602082019050818103600083015261459d81614561565b9050919050565b7f5665726966792069662074686520646f6d61696e20686173206e6f742062656560008201527f6e2070726576696f75736c79207265766f6b6564000000000000000000000000602082015250565b60006146006034836135ca565b915061460b826145a4565b604082019050919050565b6000602082019050818103600083015261462f816145f3565b9050919050565b600061464182613227565b915061464c83613227565b9250827fffffffffffffffffffffffffffffffffffffffffffffffffffffffffffffffff03821115614681576146806142f3565b5b828201905092915050565b600061469782613669565b91506146a283613669565b92508260ff038211156146b8576146b76142f3565b5b828201905092915050565b7f596f7527766520616c726561647920766f74656420666f72207468656d000000600082015250565b60006146f9601d836135ca565b9150614704826146c3565b602082019050919050565b60006020820190508181036000830152614728816146ec565b9050919050565b7f5468657927726520616c726561647920616464656420746f20617574686f726960008201527f7469657300000000000000000000000000000000000000000000000000000000602082015250565b600061478b6024836135ca565b91506147968261472f565b604082019050919050565b600060208201905081810360008301526147ba8161477e565b9050919050565b600081905092915050565b60008190508160005260206000209050919050565b600081546147ee81614216565b6147f881866147c1565b94506001821660008114614813576001811461482457614857565b60ff19831686528186019350614857565b61482d856147cc565b60005b8381101561484f57815481890152600182019150602081019050614830565b838801955050505b50505092915050565b600061486c82846147e1565b91508190509291505056fea2646970667358221220ac9e017b8d89bfe23b504ffc606db6a38d12bf04711dbad0c5e8c865d5e01b6564736f6c634300080a0033",
  "immutableReferences": {},
  "source": "// SPDX-License-Identifier: MIT\r\npragma solidity >=0.4.22 <0.9.0;\r\n\r\ncontract PKI {\r\n  \r\n    modifier onlyTrustedCA{\r\n        require(checkIfTrustedCA(msg.sender), \"Only Trusted CAs are allowed\");\r\n        _;\r\n    }\r\n    struct domain_data{\r\n        string domainName;\r\n        string organization;\r\n        string country;\r\n        string state;\r\n        string emailAddr;\r\n        string publicKey;\r\n        uint daysValid;\r\n        uint256 dateCreated;\r\n        uint revokedByCount;\r\n        bool valid;\r\n        address paymentAddr;\r\n        bool[] isRevokedBy;\r\n    }\r\n     struct petition{ //those who want to become a CA\r\n        address petitioner;\r\n        uint8 timeLapsed;\r\n        uint8 votesReceived;\r\n        address[] voters;\r\n        bool added;\r\n    }\r\n\r\n    address [] public owners;\r\n\r\n    petition [] public petitions;\r\n\r\n        mapping(string => domain_data) public domain_name_map; //details of a single domain\r\n    string [] public domainArray; //all domain names\r\n    \r\n\r\n    //change the below addresses to the ones in your own ganache workspace\r\n    constructor(){\r\n        owners.push(0x5Dd5d1def7f67E5f0B977dB341d7774F2ccC89b5);\r\n        owners.push(0x2621922fFB7BF8b052aDa0cDBB0E2Bb15E6692dD);\r\n        owners.push(0x8FB7452f0A4CddC463b3241A47Eb0Db5feeE01A3);\r\n        owners.push(0x16dF74a6DbE94aa3FC3834e5A6589ec473e34f14);\r\n        owners.push(0x263202fC6a8E70F58079859349F34dC1f82184F1);\r\n        owners.push(0x4A896995f0C53a52D58381c22D137C25a7879AA8);\r\n        owners.push(0x251018F4C3dcf280205D5D24770806ef14a90B42);\r\n        owners.push(0x24524E2Fb653E06E001A9498c1c0B616e4d12F21);\r\n      //owners.push(0x5C626149C2b5d1f199292a4C446D9f667758DfdA);\r\n      //owners.push(0x5eF34402dD52aC15A6dE46490Eda54005EE4038f);\r\n    }\r\n\r\n      \r\n    function vote(address _petitioner) public onlyTrustedCA{\r\n        for (uint i=0; i<petitions.length;i++){\r\n            //first increment time lapsed for all petitions\r\n            petitions[i].timeLapsed+=1;\r\n        }\r\n        for (uint i=0; i<petitions.length; i++){\r\n            //add vote of the person being voted for\r\n            if (petitions[i].petitioner==_petitioner){\r\n                require(checkIfVoted(msg.sender, petitions[i].voters)==false, \"You've already voted for them\");\r\n                require(petitions[i].added==false, \"They're already added to authorities\");\r\n                petitions[i].votesReceived+=1;\r\n                petitions[i].voters.push(msg.sender);\r\n            }\r\n            //next check if any votes for any petitions have reached the threshold, if so they should be added to trusted CAs list\r\n            //and their revoke status for all domains set to false\r\n            if (petitions[i].votesReceived>=3 && petitions[i].added==false){\r\n                owners.push(petitions[i].petitioner); //add to trusted\r\n                for (uint j=0; j<domainArray.length; j++){\r\n                    domain_name_map[domainArray[j]].isRevokedBy.push(false); //set domain's revoke to false\r\n                }\r\n                petitions[i].added=true;\r\n            }\r\n            //check if any that have not receieved needed votes have been in the petitioner array for more than 10 votes, if so, remove them\r\n            if (petitions[i].timeLapsed>=4 && petitions[i].added==false){ //actually 10\r\n                removePetition(petitions[i].petitioner);\r\n            }\r\n        }\r\n        \r\n       \r\n            \r\n    }\r\n\r\n    //call this function in order to submit a petition if you want to become a Trusted CA\r\n    function submitCAPetition() public{\r\n        for(uint i=0; i<petitions.length; i++){\r\n            if (petitions[i].petitioner==msg.sender){\r\n                revert(\"You already have a pending a petition\");\r\n            }\r\n        }\r\n        require(checkIfTrustedCA(msg.sender)==false, \"You are already a CA!\");\r\n        petition memory temp;\r\n        temp.petitioner=msg.sender;\r\n        temp.timeLapsed=0;\r\n        temp.votesReceived=0;\r\n        temp.added=false;\r\n        petitions.push(temp);\r\n    }\r\n    \r\n    function viewPetitions() view public returns(petition[] memory){\r\n        return petitions;\r\n    }\r\n\r\n    //call this function to remove a petition from petitioner array    \r\n    function removePetition(address petitioner) public  {\r\n        for (uint i = 0;i<petitions.length; i++){\r\n            if (petitions[i].petitioner==petitioner){\r\n                petitions[i] = petitions[petitions.length-1];\r\n                delete petitions[petitions.length-1];\r\n                petitions.pop();\r\n                break;\r\n            }\r\n        }        \r\n\r\n    }\r\n\r\n    //call this function to check if a voter has already voted for this petitioner\r\n    function checkIfVoted(address _voter, address[] memory _voters) public view returns(bool){\r\n        bool voted=false;\r\n        for (uint i=0; i<_voters.length; i++){\r\n            if (_voters[i]==_voter){\r\n                voted=true;\r\n            }\r\n        }\r\n        return voted;\r\n    }\r\n\r\n\r\n\r\n    function checkIfTrustedCA(address trustedca) public view returns(bool trust){\r\n        bool canWeTrust = false;\r\n        for(uint i=0;i<owners.length;i++){\r\n            if(trustedca==owners[i]){\r\n                canWeTrust = true;\r\n            }\r\n        }\r\n        return canWeTrust;\r\n    } \r\n    function checkIfDomainUsed(string memory domain) public view returns(bool isUsed){\r\n        bool isUsed=false;\r\n        for (uint i=0; i<domainArray.length; i++){\r\n            if (keccak256(bytes(domainArray[i]))==keccak256(bytes(domain))){\r\n                isUsed=true;\r\n            }\r\n        }\r\n        return isUsed;\r\n    }\r\n    function getDomains() view public returns(string[] memory){\r\n        return domainArray;\r\n    }\r\n    \r\n   \r\n    function registerDomain(string memory domainName, string memory organization, \r\n    string memory country, string memory state, string memory emailAddr,\r\n     string memory publicKey, uint daysValid) public onlyTrustedCA {\r\n        // domain - the one being registered\r\n        // Every address has one or many domains registered to it\r\n        // Add all the values associated with the domain \r\n        \r\n        require(checkIfDomainUsed(domainName)==false, \"Domain already exists\"); // Domain should not exist before\r\n        domainArray.push(domainName);\r\n        //domainExists[domainName] = true;\r\n\r\n        // mapping to domain name\r\n        domain_name_map[domainName].domainName=domainName;\r\n        domain_name_map[domainName].organization=organization;\r\n        domain_name_map[domainName].country=country;\r\n        domain_name_map[domainName].state=state;\r\n        domain_name_map[domainName].emailAddr=emailAddr;\r\n        domain_name_map[domainName].publicKey=publicKey;\r\n        domain_name_map[domainName].daysValid = daysValid;\r\n        domain_name_map[domainName].dateCreated = block.timestamp;\r\n        domain_name_map[domainName].revokedByCount = 0;\r\n        domain_name_map[domainName].paymentAddr = msg.sender;\r\n        domain_name_map[domainName].valid = true;\r\n        for(uint i=0; i<owners.length;i++){\r\n            domain_name_map[domainName].isRevokedBy.push(false);\r\n        }\r\n        \r\n    }\r\n\r\n/*\r\n    function getDomainData(string memory domainName) view public returns (string[] memory,\r\n    string[] memory, string[] memory,string[] memory,string[] memory,uint,uint256,bool ){\r\n        return(domain_name_map[domainName].organization, domain_name_map[domainName].country,\r\n        domain_name_map[domainName].state, domain_name_map[domainName].emailAddr,\r\n        domain_name_map[domainName].publicKey, domain_name_map[domainName].daysValid,\r\n        domain_name_map[domainName].dateCreated,domain_name_map[domainName].isCertified);\r\n    }\r\n*/\r\n\r\n    // return all values corresponding to a domain name as one string\r\n    function getDomainData(string memory domainName) view public returns (domain_data memory){\r\n        //return (\"Domain Name: \"+domain_name_map[domainName].domainName+\"\\\"+\"Organization: \"+domain_name_map[domain_name_map].organization);\r\n        return (domain_name_map[domainName]);\r\n    }\r\n    //return organization of domain\r\n    function getOrganization(string memory domainName) view public returns (string memory org){\r\n        return (domain_name_map[domainName].organization);\r\n    }\r\n    //return country of domain\r\n    function getCountry(string memory domainName) view public returns (string memory con){\r\n        return (domain_name_map[domainName].country);\r\n    }\r\n    //return registered email of domain\r\n    function getEmail(string memory domainName) view public returns (string memory email){\r\n        return (domain_name_map[domainName].emailAddr);\r\n    }\r\n    //return public key of domain\r\n    function getKey(string memory domainName) view public returns (string memory key){\r\n        return (domain_name_map[domainName].publicKey);\r\n    }\r\n    //return address of domain holder\r\n    function getAddress(string memory domainName) view public returns (address){\r\n        return (domain_name_map[domainName].paymentAddr);\r\n    }\r\n    //return creation date of domain\r\n    function getCreationDate(string memory domainName) view public returns (uint256){\r\n        return (domain_name_map[domainName].dateCreated);\r\n    }\r\n\r\n    //return which CA have and havent revoked domain\r\n    function getCARevokeStatus(string memory domainName) view public returns (address[] memory, bool[] memory){\r\n        return (owners, domain_name_map[domainName].isRevokedBy);    \r\n    }\r\n\r\n    function updatePublicKey(string memory domainName, string memory publicKeyNew) public onlyTrustedCA{\r\n        domain_name_map[domainName].publicKey=publicKeyNew;\r\n    }\r\n    function updateDaysOfContract(string memory domainName, uint newDay) public onlyTrustedCA{\r\n        domain_name_map[domainName].daysValid=newDay;\r\n    }\r\n\r\n    function getOwnerIndex(address ad) private returns(uint){\r\n        for(uint i=0;i<owners.length;i++){\r\n            if(ad == owners[i]){\r\n                return i;\r\n            }\r\n        }\r\n        return 1000;\r\n    }\r\n    \r\n    function removeDomain(string memory domainName) public onlyTrustedCA  {\r\n        for (uint i = 0; i<domainArray.length; i++){\r\n            if (keccak256(abi.encodePacked(domainArray[i]))==keccak256(abi.encodePacked(domainName))){\r\n                domainArray[i] = domainArray[domainArray.length-1];\r\n                delete domainArray[domainArray.length-1];\r\n                domainArray.pop();\r\n                break;\r\n            }\r\n        }        \r\n\r\n    }\r\n  \r\n    // or should every domain be valid at the time of registration\r\n    function revokeDomain(string memory domainName) public onlyTrustedCA{\r\n        // Only the CA can revoke a domain\r\n        // maintain count how many CAs revoked a domain\r\n        // every domain has a mapping of CA and mapping true or false.       \r\n        \r\n        require(verifyDomain(domainName), \"Verify Domain name valid\");\r\n        require(domain_name_map[domainName].isRevokedBy[getOwnerIndex(msg.sender)]==false, \"Verify if the domain has not been previously revoked\");\r\n        \r\n        domain_name_map[domainName].isRevokedBy[getOwnerIndex(msg.sender)]=true;\r\n        domain_name_map[domainName].revokedByCount +=1;\r\n        // If 3 CAs reovke a contract only then set valid to false\r\n        if (domain_name_map[domainName].revokedByCount >=3){\r\n            domain_name_map[domainName].valid = false;\r\n            removeDomain(domainName);\r\n        }  \r\n    }\r\n\r\n    function verifyDomain(string memory domainName) view public returns(bool){\r\n        return domain_name_map[domainName].valid;\r\n        // Also verify from the timestamp - is the certificate valid anymore?\r\n    }\r\n\r\n\r\n    function getCAs() view public returns (address[] memory){\r\n        return owners;\r\n    }\r\n    \r\n}\r\n// myins.registerDomain(\"www.a.com\",\"f\",\"p\",\"d\",\"d\",\"s\",23, {from: '0x9351eb4413BF082Ab6Adc1236cE7b3b791D89457'})\r\n/*\r\n****************checking voting***********\r\nx.submitCAPetition({from:\"0x5eF34402dD52aC15A6dE46490Eda54005EE4038f\"})\r\nx.submitCAPetition({from:\"0x5C626149C2b5d1f199292a4C446D9f667758DfdA\"})\r\nx.viewPetitions()\r\nx.vote(\"0x5eF34402dD52aC15A6dE46490Eda54005EE4038f\")\r\nx.vote(\"0x5eF34402dD52aC15A6dE46490Eda54005EE4038f\", {from:\"0x9129122c55b1055Bad9d9B56D50A19968a9db944\"}) \r\nx.viewPetitions()\r\nx.vote(\"0x5eF34402dD52aC15A6dE46490Eda54005EE4038f\", {from:\"0x54A49513BFdFdfdfe1D2d86709e2E8bFAF68081c\"})\r\nx.vote(\"0x5C626149C2b5d1f199292a4C446D9f667758DfdA\", {from:\"0x54A49513BFdFdfdfe1D2d86709e2E8bFAF68081c\"})\r\nx.viewPetitions()\r\nx.getCAs()\r\n*/",
  "sourcePath": "G:\\BSCS(Adil)\\Semester 7\\Information Security\\Project\\Truffle\\contracts\\PKI.sol",
  "compiler": {
    "name": "solc",
    "version": "0.8.10+commit.fc410830.Emscripten.clang"
  },
  "schemaVersion": "3.4.3",
  "updatedAt": "2021-12-13T13:21:41.724Z",
  "networkType": "ethereum",
  "devdoc": {
    "kind": "dev",
    "methods": {},
    "version": 1
  },
  "userdoc": {
    "kind": "user",
    "methods": {},
    "version": 1
  }
}